{
  "_format": "hh-sol-artifact-1",
  "contractName": "PresaleFactory",
  "sourceName": "contracts/PresaleFactory.sol",
  "abi": [
    {
      "inputs": [
        {
          "internalType": "address",
          "name": "presale_",
          "type": "address"
        },
        {
          "internalType": "address",
          "name": "token_",
          "type": "address"
        }
      ],
      "stateMutability": "nonpayable",
      "type": "constructor"
    },
    {
      "inputs": [],
      "name": "FailedDeployment",
      "type": "error"
    },
    {
      "inputs": [
        {
          "internalType": "uint256",
          "name": "balance",
          "type": "uint256"
        },
        {
          "internalType": "uint256",
          "name": "needed",
          "type": "uint256"
        }
      ],
      "name": "InsufficientBalance",
      "type": "error"
    },
    {
      "anonymous": false,
      "inputs": [
        {
          "indexed": true,
          "internalType": "address",
          "name": "presale",
          "type": "address"
        }
      ],
      "name": "PresaleCreated",
      "type": "event"
    },
    {
      "inputs": [
        {
          "internalType": "uint256",
          "name": "",
          "type": "uint256"
        }
      ],
      "name": "allPresales",
      "outputs": [
        {
          "internalType": "address",
          "name": "",
          "type": "address"
        }
      ],
      "stateMutability": "view",
      "type": "function"
    },
    {
      "inputs": [
        {
          "internalType": "string",
          "name": "name",
          "type": "string"
        },
        {
          "internalType": "string",
          "name": "symbol",
          "type": "string"
        },
        {
          "internalType": "uint256",
          "name": "supply",
          "type": "uint256"
        },
        {
          "internalType": "uint256",
          "name": "price",
          "type": "uint256"
        },
        {
          "internalType": "uint256",
          "name": "hardCap",
          "type": "uint256"
        },
        {
          "internalType": "uint256",
          "name": "softCap",
          "type": "uint256"
        },
        {
          "internalType": "uint256",
          "name": "startTime",
          "type": "uint256"
        },
        {
          "internalType": "uint256",
          "name": "endTime",
          "type": "uint256"
        }
      ],
      "name": "createPresale",
      "outputs": [],
      "stateMutability": "nonpayable",
      "type": "function"
    },
    {
      "inputs": [
        {
          "internalType": "uint256",
          "name": "page",
          "type": "uint256"
        }
      ],
      "name": "getPaginatedPresales",
      "outputs": [
        {
          "internalType": "address[]",
          "name": "",
          "type": "address[]"
        }
      ],
      "stateMutability": "view",
      "type": "function"
    },
    {
      "inputs": [
        {
          "internalType": "address",
          "name": "user",
          "type": "address"
        }
      ],
      "name": "getUserCreatedTokens",
      "outputs": [
        {
          "internalType": "address[]",
          "name": "",
          "type": "address[]"
        }
      ],
      "stateMutability": "view",
      "type": "function"
    },
    {
      "inputs": [],
      "name": "presale",
      "outputs": [
        {
          "internalType": "contract Presale",
          "name": "",
          "type": "address"
        }
      ],
      "stateMutability": "view",
      "type": "function"
    },
    {
      "inputs": [],
      "name": "token",
      "outputs": [
        {
          "internalType": "contract MintableERC20",
          "name": "",
          "type": "address"
        }
      ],
      "stateMutability": "view",
      "type": "function"
    }
  ],
  "bytecode": "0x60c060405234801561001057600080fd5b506040516110c83803806110c883398181016040528101906100329190610104565b8173ffffffffffffffffffffffffffffffffffffffff1660808173ffffffffffffffffffffffffffffffffffffffff16815250508073ffffffffffffffffffffffffffffffffffffffff1660a08173ffffffffffffffffffffffffffffffffffffffff16815250505050610144565b600080fd5b600073ffffffffffffffffffffffffffffffffffffffff82169050919050565b60006100d1826100a6565b9050919050565b6100e1816100c6565b81146100ec57600080fd5b50565b6000815190506100fe816100d8565b92915050565b6000806040838503121561011b5761011a6100a1565b5b6000610129858286016100ef565b925050602061013a858286016100ef565b9150509250929050565b60805160a051610f5161017760003960008181610156015261071401526000818161018301526107380152610f516000f3fe608060405234801561001057600080fd5b50600436106100625760003560e01c8063244444bc14610067578063a9e1a14a14610083578063c00be1a0146100b3578063ee443750146100e3578063fc0c546a14610113578063fdea8e0b14610131575b600080fd5b610081600480360381019061007c919061090b565b61014f565b005b61009d60048036038101906100989190610a02565b6103eb565b6040516100aa9190610a70565b60405180910390f35b6100cd60048036038101906100c89190610ab7565b61042a565b6040516100da9190610ba2565b60405180910390f35b6100fd60048036038101906100f89190610a02565b6104f7565b60405161010a9190610ba2565b60405180910390f35b61011b610712565b6040516101289190610c23565b60405180910390f35b610139610736565b6040516101469190610c5f565b60405180910390f35b600061017a7f000000000000000000000000000000000000000000000000000000000000000061075a565b905060006101a77f000000000000000000000000000000000000000000000000000000000000000061075a565b90508173ffffffffffffffffffffffffffffffffffffffff166393d2392333838f8f8f8f8f6040518863ffffffff1660e01b81526004016101ee9796959493929190610ce7565b600060405180830381600087803b15801561020857600080fd5b505af115801561021c573d6000803e3d6000fd5b505050508073ffffffffffffffffffffffffffffffffffffffff1663edbf4ac233848a8a8a8a8a6040518863ffffffff1660e01b81526004016102659796959493929190610d4c565b600060405180830381600087803b15801561027f57600080fd5b505af1158015610293573d6000803e3d6000fd5b505050506000819080600181540180825580915050600190039060005260206000200160009091909190916101000a81548173ffffffffffffffffffffffffffffffffffffffff021916908373ffffffffffffffffffffffffffffffffffffffff1602179055508073ffffffffffffffffffffffffffffffffffffffff167f8b27b1a9a5960fe85b0267737620545414f3bb7d104301f7ef6b397e7ebfc99360405160405180910390a2600160003373ffffffffffffffffffffffffffffffffffffffff1673ffffffffffffffffffffffffffffffffffffffff168152602001908152602001600020829080600181540180825580915050600190039060005260206000200160009091909190916101000a81548173ffffffffffffffffffffffffffffffffffffffff021916908373ffffffffffffffffffffffffffffffffffffffff160217905550505050505050505050505050565b600081815481106103fb57600080fd5b906000526020600020016000915054906101000a900473ffffffffffffffffffffffffffffffffffffffff1681565b6060600160008373ffffffffffffffffffffffffffffffffffffffff1673ffffffffffffffffffffffffffffffffffffffff1681526020019081526020016000208054806020026020016040519081016040528092919081815260200182805480156104eb57602002820191906000526020600020905b8160009054906101000a900473ffffffffffffffffffffffffffffffffffffffff1673ffffffffffffffffffffffffffffffffffffffff16815260200190600101908083116104a1575b50505050509050919050565b60606000808054905090506000600a90506000840361056357600067ffffffffffffffff81111561052b5761052a610dbb565b5b6040519080825280602002602001820160405280156105595781602001602082028036833780820191505090505b509250505061070d565b6000816001866105739190610e19565b61057d9190610e4d565b90508281106105da57600067ffffffffffffffff8111156105a1576105a0610dbb565b5b6040519080825280602002602001820160405280156105cf5781602001602082028036833780820191505090505b50935050505061070d565b600082826105e89190610e8f565b9050838111156105f6578390505b600082826106049190610e19565b905060008167ffffffffffffffff81111561062257610621610dbb565b5b6040519080825280602002602001820160405280156106505781602001602082028036833780820191505090505b50905060005b82811015610702576000818661066c9190610e8f565b8154811061067d5761067c610ec3565b5b9060005260206000200160009054906101000a900473ffffffffffffffffffffffffffffffffffffffff168282815181106106bb576106ba610ec3565b5b602002602001019073ffffffffffffffffffffffffffffffffffffffff16908173ffffffffffffffffffffffffffffffffffffffff16815250508080600101915050610656565b508096505050505050505b919050565b7f000000000000000000000000000000000000000000000000000000000000000081565b7f000000000000000000000000000000000000000000000000000000000000000081565b600061076782600061076e565b9050919050565b6000814710156107b75747826040517fcf4791810000000000000000000000000000000000000000000000000000000081526004016107ae929190610ef2565b60405180910390fd5b763d602d80600a3d3981f3363d3d373d3d3d363d730000008360601b60e81c176000526e5af43d82803e903d91602b57fd5bf38360781b176020526037600983f09050600073ffffffffffffffffffffffffffffffffffffffff168173ffffffffffffffffffffffffffffffffffffffff1603610860576040517fb06ebf3d00000000000000000000000000000000000000000000000000000000815260040160405180910390fd5b92915050565b600080fd5b600080fd5b600080fd5b600080fd5b600080fd5b60008083601f84011261089557610894610870565b5b8235905067ffffffffffffffff8111156108b2576108b1610875565b5b6020830191508360018202830111156108ce576108cd61087a565b5b9250929050565b6000819050919050565b6108e8816108d5565b81146108f357600080fd5b50565b600081359050610905816108df565b92915050565b6000806000806000806000806000806101008b8d03121561092f5761092e610866565b5b60008b013567ffffffffffffffff81111561094d5761094c61086b565b5b6109598d828e0161087f565b9a509a505060208b013567ffffffffffffffff81111561097c5761097b61086b565b5b6109888d828e0161087f565b9850985050604061099b8d828e016108f6565b96505060606109ac8d828e016108f6565b95505060806109bd8d828e016108f6565b94505060a06109ce8d828e016108f6565b93505060c06109df8d828e016108f6565b92505060e06109f08d828e016108f6565b9150509295989b9194979a5092959850565b600060208284031215610a1857610a17610866565b5b6000610a26848285016108f6565b91505092915050565b600073ffffffffffffffffffffffffffffffffffffffff82169050919050565b6000610a5a82610a2f565b9050919050565b610a6a81610a4f565b82525050565b6000602082019050610a856000830184610a61565b92915050565b610a9481610a4f565b8114610a9f57600080fd5b50565b600081359050610ab181610a8b565b92915050565b600060208284031215610acd57610acc610866565b5b6000610adb84828501610aa2565b91505092915050565b600081519050919050565b600082825260208201905092915050565b6000819050602082019050919050565b610b1981610a4f565b82525050565b6000610b2b8383610b10565b60208301905092915050565b6000602082019050919050565b6000610b4f82610ae4565b610b598185610aef565b9350610b6483610b00565b8060005b83811015610b95578151610b7c8882610b1f565b9750610b8783610b37565b925050600181019050610b68565b5085935050505092915050565b60006020820190508181036000830152610bbc8184610b44565b905092915050565b6000819050919050565b6000610be9610be4610bdf84610a2f565b610bc4565b610a2f565b9050919050565b6000610bfb82610bce565b9050919050565b6000610c0d82610bf0565b9050919050565b610c1d81610c02565b82525050565b6000602082019050610c386000830184610c14565b92915050565b6000610c4982610bf0565b9050919050565b610c5981610c3e565b82525050565b6000602082019050610c746000830184610c50565b92915050565b600082825260208201905092915050565b82818337600083830152505050565b6000601f19601f8301169050919050565b6000610cb78385610c7a565b9350610cc4838584610c8b565b610ccd83610c9a565b840190509392505050565b610ce1816108d5565b82525050565b600060a082019050610cfc600083018a610a61565b610d096020830189610a61565b8181036040830152610d1c818789610cab565b90508181036060830152610d31818587610cab565b9050610d406080830184610cd8565b98975050505050505050565b600060e082019050610d61600083018a610a61565b610d6e6020830189610a61565b610d7b6040830188610cd8565b610d886060830187610cd8565b610d956080830186610cd8565b610da260a0830185610cd8565b610daf60c0830184610cd8565b98975050505050505050565b7f4e487b7100000000000000000000000000000000000000000000000000000000600052604160045260246000fd5b7f4e487b7100000000000000000000000000000000000000000000000000000000600052601160045260246000fd5b6000610e24826108d5565b9150610e2f836108d5565b9250828203905081811115610e4757610e46610dea565b5b92915050565b6000610e58826108d5565b9150610e63836108d5565b9250828202610e71816108d5565b91508282048414831517610e8857610e87610dea565b5b5092915050565b6000610e9a826108d5565b9150610ea5836108d5565b9250828201905080821115610ebd57610ebc610dea565b5b92915050565b7f4e487b7100000000000000000000000000000000000000000000000000000000600052603260045260246000fd5b6000604082019050610f076000830185610cd8565b610f146020830184610cd8565b939250505056fea26469706673582212209abdb74dd556aa43efab492a7f93f9acb534286208793be2cf74eaa8c86234b264736f6c634300081a0033",
  "linkReferences": {},
  "deployedLinkReferences": {}
}