{
  "_format": "hh-sol-artifact-1",
  "contractName": "Presale",
  "sourceName": "contracts/Presale.sol",
  "abi": [
    {
      "inputs": [],
      "stateMutability": "nonpayable",
      "type": "constructor"
    },
    {
      "inputs": [
        {
          "internalType": "uint256",
          "name": "currentContribution",
          "type": "uint256"
        },
        {
          "internalType": "uint256",
          "name": "maxContribution",
          "type": "uint256"
        }
      ],
      "name": "HardCapExceeded",
      "type": "error"
    },
    {
      "inputs": [
        {
          "internalType": "uint256",
          "name": "amountSent",
          "type": "uint256"
        },
        {
          "internalType": "uint256",
          "name": "requiredAmount",
          "type": "uint256"
        }
      ],
      "name": "InvalidEtherSent",
      "type": "error"
    },
    {
      "inputs": [],
      "name": "InvalidInitialization",
      "type": "error"
    },
    {
      "inputs": [],
      "name": "NotInitializing",
      "type": "error"
    },
    {
      "inputs": [
        {
          "internalType": "address",
          "name": "owner",
          "type": "address"
        }
      ],
      "name": "OwnableInvalidOwner",
      "type": "error"
    },
    {
      "inputs": [
        {
          "internalType": "address",
          "name": "account",
          "type": "address"
        }
      ],
      "name": "OwnableUnauthorizedAccount",
      "type": "error"
    },
    {
      "inputs": [],
      "name": "PresaleNotActive",
      "type": "error"
    },
    {
      "anonymous": false,
      "inputs": [
        {
          "indexed": true,
          "internalType": "address",
          "name": "to",
          "type": "address"
        },
        {
          "indexed": false,
          "internalType": "uint256",
          "name": "amount",
          "type": "uint256"
        }
      ],
      "name": "EtherWithdrawn",
      "type": "event"
    },
    {
      "anonymous": false,
      "inputs": [
        {
          "indexed": false,
          "internalType": "uint64",
          "name": "version",
          "type": "uint64"
        }
      ],
      "name": "Initialized",
      "type": "event"
    },
    {
      "anonymous": false,
      "inputs": [
        {
          "indexed": true,
          "internalType": "address",
          "name": "contributor",
          "type": "address"
        },
        {
          "indexed": false,
          "internalType": "uint256",
          "name": "amount",
          "type": "uint256"
        }
      ],
      "name": "NewContribution",
      "type": "event"
    },
    {
      "anonymous": false,
      "inputs": [
        {
          "indexed": true,
          "internalType": "address",
          "name": "previousOwner",
          "type": "address"
        },
        {
          "indexed": true,
          "internalType": "address",
          "name": "newOwner",
          "type": "address"
        }
      ],
      "name": "OwnershipTransferred",
      "type": "event"
    },
    {
      "anonymous": false,
      "inputs": [
        {
          "indexed": true,
          "internalType": "address",
          "name": "to",
          "type": "address"
        },
        {
          "indexed": false,
          "internalType": "uint256",
          "name": "amount",
          "type": "uint256"
        }
      ],
      "name": "TokenWithdrawn",
      "type": "event"
    },
    {
      "inputs": [
        {
          "internalType": "uint256",
          "name": "amount",
          "type": "uint256"
        }
      ],
      "name": "contribute",
      "outputs": [],
      "stateMutability": "payable",
      "type": "function"
    },
    {
      "inputs": [],
      "name": "endTime",
      "outputs": [
        {
          "internalType": "uint256",
          "name": "",
          "type": "uint256"
        }
      ],
      "stateMutability": "view",
      "type": "function"
    },
    {
      "inputs": [],
      "name": "hardCap",
      "outputs": [
        {
          "internalType": "uint256",
          "name": "",
          "type": "uint256"
        }
      ],
      "stateMutability": "view",
      "type": "function"
    },
    {
      "inputs": [
        {
          "internalType": "address",
          "name": "owner_",
          "type": "address"
        },
        {
          "internalType": "address",
          "name": "token_",
          "type": "address"
        },
        {
          "internalType": "uint256",
          "name": "price_",
          "type": "uint256"
        },
        {
          "internalType": "uint256",
          "name": "hardCap_",
          "type": "uint256"
        },
        {
          "internalType": "uint256",
          "name": "softCap_",
          "type": "uint256"
        },
        {
          "internalType": "uint256",
          "name": "startTime_",
          "type": "uint256"
        },
        {
          "internalType": "uint256",
          "name": "endTime_",
          "type": "uint256"
        }
      ],
      "name": "initialize",
      "outputs": [],
      "stateMutability": "nonpayable",
      "type": "function"
    },
    {
      "inputs": [],
      "name": "owner",
      "outputs": [
        {
          "internalType": "address",
          "name": "",
          "type": "address"
        }
      ],
      "stateMutability": "view",
      "type": "function"
    },
    {
      "inputs": [],
      "name": "price",
      "outputs": [
        {
          "internalType": "uint256",
          "name": "",
          "type": "uint256"
        }
      ],
      "stateMutability": "view",
      "type": "function"
    },
    {
      "inputs": [],
      "name": "renounceOwnership",
      "outputs": [],
      "stateMutability": "nonpayable",
      "type": "function"
    },
    {
      "inputs": [],
      "name": "softCap",
      "outputs": [
        {
          "internalType": "uint256",
          "name": "",
          "type": "uint256"
        }
      ],
      "stateMutability": "view",
      "type": "function"
    },
    {
      "inputs": [],
      "name": "startTime",
      "outputs": [
        {
          "internalType": "uint256",
          "name": "",
          "type": "uint256"
        }
      ],
      "stateMutability": "view",
      "type": "function"
    },
    {
      "inputs": [],
      "name": "token",
      "outputs": [
        {
          "internalType": "contract MintableERC20",
          "name": "",
          "type": "address"
        }
      ],
      "stateMutability": "view",
      "type": "function"
    },
    {
      "inputs": [],
      "name": "totalContributed",
      "outputs": [
        {
          "internalType": "uint256",
          "name": "",
          "type": "uint256"
        }
      ],
      "stateMutability": "view",
      "type": "function"
    },
    {
      "inputs": [
        {
          "internalType": "address",
          "name": "newOwner",
          "type": "address"
        }
      ],
      "name": "transferOwnership",
      "outputs": [],
      "stateMutability": "nonpayable",
      "type": "function"
    },
    {
      "inputs": [],
      "name": "withdrawETH",
      "outputs": [],
      "stateMutability": "nonpayable",
      "type": "function"
    },
    {
      "inputs": [
        {
          "internalType": "address",
          "name": "token_",
          "type": "address"
        }
      ],
      "name": "withdrawToken",
      "outputs": [],
      "stateMutability": "nonpayable",
      "type": "function"
    }
  ],
  "bytecode": "0x608060405234801561001057600080fd5b5061001f61002460201b60201c565b6101ab565b600061003461012860201b60201c565b90508060000160089054906101000a900460ff161561007f576040517ff92ee8a900000000000000000000000000000000000000000000000000000000815260040160405180910390fd5b67ffffffffffffffff80168160000160009054906101000a900467ffffffffffffffff1667ffffffffffffffff16146101255767ffffffffffffffff8160000160006101000a81548167ffffffffffffffff021916908367ffffffffffffffff1602179055507fc7f505b2f371ae2175ee4913f4499e1f2633a7b5936321eed1cdaeb6115181d267ffffffffffffffff60405161011c9190610190565b60405180910390a15b50565b60008061013961014260201b60201c565b90508091505090565b60007ff0c57e16840df040f15088dc2f81fe391c3923bec73e23a9662efc9c229c6a0060001b905090565b600067ffffffffffffffff82169050919050565b61018a8161016d565b82525050565b60006020820190506101a56000830184610181565b92915050565b6114b9806101ba6000396000f3fe6080604052600436106100dd5760003560e01c8063a035b1fe1161007f578063edbf4ac211610059578063edbf4ac214610257578063f2fde38b14610280578063fb86a404146102a9578063fc0c546a146102d4576100dd565b8063a035b1fe146101f9578063c1cbbca714610224578063e086e5ec14610240576100dd565b806378e97925116100bb57806378e979251461014f578063894760691461017a5780638da5cb5b146101a3578063906a26e0146101ce576100dd565b8063023f4147146100e25780633197cbb61461010d578063715018a614610138575b600080fd5b3480156100ee57600080fd5b506100f76102ff565b6040516101049190610e4d565b60405180910390f35b34801561011957600080fd5b50610122610305565b60405161012f9190610e4d565b60405180910390f35b34801561014457600080fd5b5061014d61030b565b005b34801561015b57600080fd5b5061016461031f565b6040516101719190610e4d565b60405180910390f35b34801561018657600080fd5b506101a1600480360381019061019c9190610ecb565b610325565b005b3480156101af57600080fd5b506101b861053d565b6040516101c59190610f07565b60405180910390f35b3480156101da57600080fd5b506101e3610575565b6040516101f09190610e4d565b60405180910390f35b34801561020557600080fd5b5061020e61057b565b60405161021b9190610e4d565b60405180910390f35b61023e60048036038101906102399190610f4e565b610581565b005b34801561024c57600080fd5b50610255610818565b005b34801561026357600080fd5b5061027e60048036038101906102799190610f7b565b6108c5565b005b34801561028c57600080fd5b506102a760048036038101906102a29190610ecb565b610abd565b005b3480156102b557600080fd5b506102be610b43565b6040516102cb9190610e4d565b60405180910390f35b3480156102e057600080fd5b506102e9610b49565b6040516102f6919061107c565b60405180910390f35b60065481565b60055481565b610313610b6d565b61031d6000610bf4565b565b60045481565b61032d610b6d565b8073ffffffffffffffffffffffffffffffffffffffff1663a9059cbb61035161053d565b60008054906101000a900473ffffffffffffffffffffffffffffffffffffffff1673ffffffffffffffffffffffffffffffffffffffff166370a08231306040518263ffffffff1660e01b81526004016103aa9190610f07565b602060405180830381865afa1580156103c7573d6000803e3d6000fd5b505050506040513d601f19601f820116820180604052508101906103eb91906110ac565b6040518363ffffffff1660e01b81526004016104089291906110d9565b6020604051808303816000875af1158015610427573d6000803e3d6000fd5b505050506040513d601f19601f8201168201806040525081019061044b919061113a565b5061045461053d565b73ffffffffffffffffffffffffffffffffffffffff167fa2bd9fcfcdba69f52bcd9a520846ad4bd685b187483f53efc42d035b2ddebff060008054906101000a900473ffffffffffffffffffffffffffffffffffffffff1673ffffffffffffffffffffffffffffffffffffffff166370a08231306040518263ffffffff1660e01b81526004016104e49190610f07565b602060405180830381865afa158015610501573d6000803e3d6000fd5b505050506040513d601f19601f8201168201806040525081019061052591906110ac565b6040516105329190610e4d565b60405180910390a250565b600080610548610ccb565b90508060000160009054906101000a900473ffffffffffffffffffffffffffffffffffffffff1691505090565b60035481565b60015481565b600454421080610592575060055442115b156105c9576040517fe113695c00000000000000000000000000000000000000000000000000000000815260040160405180910390fd5b6000600154826105d99190611196565b90503481146106215734816040517f26fea35b0000000000000000000000000000000000000000000000000000000081526004016106189291906111d8565b60405180910390fd5b600254346006546106329190611201565b111561067b576006546002546040517f6bda2c440000000000000000000000000000000000000000000000000000000081526004016106729291906111d8565b60405180910390fd5b346006600082825461068d9190611201565b9250508190555060008054906101000a900473ffffffffffffffffffffffffffffffffffffffff1673ffffffffffffffffffffffffffffffffffffffff166340c10f193360008054906101000a900473ffffffffffffffffffffffffffffffffffffffff1673ffffffffffffffffffffffffffffffffffffffff1663313ce5676040518163ffffffff1660e01b8152600401602060405180830381865afa15801561073c573d6000803e3d6000fd5b505050506040513d601f19601f82011682018060405250810190610760919061126e565b600a61076c91906113ce565b856107779190611196565b6040518363ffffffff1660e01b81526004016107949291906110d9565b600060405180830381600087803b1580156107ae57600080fd5b505af11580156107c2573d6000803e3d6000fd5b505050503373ffffffffffffffffffffffffffffffffffffffff167fbdaa686eb6f59012d211a74523da260341c516896e9e5be954163d6ecf26ffa28360405161080c9190610e4d565b60405180910390a25050565b610820610b6d565b61082861053d565b73ffffffffffffffffffffffffffffffffffffffff166108fc479081150290604051600060405180830381858888f1935050505015801561086d573d6000803e3d6000fd5b5061087661053d565b73ffffffffffffffffffffffffffffffffffffffff167f06097061aeda806b5e9cb4133d9899f332ff0913956567fc0f7ea15e3d19947c476040516108bb9190610e4d565b60405180910390a2565b60006108cf610cf3565b905060008160000160089054906101000a900460ff1615905060008260000160009054906101000a900467ffffffffffffffff1690506000808267ffffffffffffffff1614801561091d5750825b9050600060018367ffffffffffffffff16148015610952575060003073ffffffffffffffffffffffffffffffffffffffff163b145b905081158015610960575080155b15610997576040517ff92ee8a900000000000000000000000000000000000000000000000000000000815260040160405180910390fd5b60018560000160006101000a81548167ffffffffffffffff021916908367ffffffffffffffff16021790555083156109e75760018560000160086101000a81548160ff0219169083151502179055505b6109f08c610d07565b8a6000806101000a81548173ffffffffffffffffffffffffffffffffffffffff021916908373ffffffffffffffffffffffffffffffffffffffff16021790555089600181905550886002819055508760038190555086600481905550856005819055508315610aaf5760008560000160086101000a81548160ff0219169083151502179055507fc7f505b2f371ae2175ee4913f4499e1f2633a7b5936321eed1cdaeb6115181d26001604051610aa69190611468565b60405180910390a15b505050505050505050505050565b610ac5610b6d565b600073ffffffffffffffffffffffffffffffffffffffff168173ffffffffffffffffffffffffffffffffffffffff1603610b375760006040517f1e4fbdf7000000000000000000000000000000000000000000000000000000008152600401610b2e9190610f07565b60405180910390fd5b610b4081610bf4565b50565b60025481565b60008054906101000a900473ffffffffffffffffffffffffffffffffffffffff1681565b610b75610d1b565b73ffffffffffffffffffffffffffffffffffffffff16610b9361053d565b73ffffffffffffffffffffffffffffffffffffffff1614610bf257610bb6610d1b565b6040517f118cdaa7000000000000000000000000000000000000000000000000000000008152600401610be99190610f07565b60405180910390fd5b565b6000610bfe610ccb565b905060008160000160009054906101000a900473ffffffffffffffffffffffffffffffffffffffff169050828260000160006101000a81548173ffffffffffffffffffffffffffffffffffffffff021916908373ffffffffffffffffffffffffffffffffffffffff1602179055508273ffffffffffffffffffffffffffffffffffffffff168173ffffffffffffffffffffffffffffffffffffffff167f8be0079c531659141344cd1fd0a4f28419497f9722a3daafe3b4186f6b6457e060405160405180910390a3505050565b60007f9016d09d72d40fdae2fd8ceac6b6234c7706214fd39c1cd1e609a0528c199300905090565b600080610cfe610d23565b90508091505090565b610d0f610d4e565b610d1881610d8e565b50565b600033905090565b60007ff0c57e16840df040f15088dc2f81fe391c3923bec73e23a9662efc9c229c6a0060001b905090565b610d56610e14565b610d8c576040517fd7e6bcf800000000000000000000000000000000000000000000000000000000815260040160405180910390fd5b565b610d96610d4e565b600073ffffffffffffffffffffffffffffffffffffffff168173ffffffffffffffffffffffffffffffffffffffff1603610e085760006040517f1e4fbdf7000000000000000000000000000000000000000000000000000000008152600401610dff9190610f07565b60405180910390fd5b610e1181610bf4565b50565b6000610e1e610cf3565b60000160089054906101000a900460ff16905090565b6000819050919050565b610e4781610e34565b82525050565b6000602082019050610e626000830184610e3e565b92915050565b600080fd5b600073ffffffffffffffffffffffffffffffffffffffff82169050919050565b6000610e9882610e6d565b9050919050565b610ea881610e8d565b8114610eb357600080fd5b50565b600081359050610ec581610e9f565b92915050565b600060208284031215610ee157610ee0610e68565b5b6000610eef84828501610eb6565b91505092915050565b610f0181610e8d565b82525050565b6000602082019050610f1c6000830184610ef8565b92915050565b610f2b81610e34565b8114610f3657600080fd5b50565b600081359050610f4881610f22565b92915050565b600060208284031215610f6457610f63610e68565b5b6000610f7284828501610f39565b91505092915050565b600080600080600080600060e0888a031215610f9a57610f99610e68565b5b6000610fa88a828b01610eb6565b9750506020610fb98a828b01610eb6565b9650506040610fca8a828b01610f39565b9550506060610fdb8a828b01610f39565b9450506080610fec8a828b01610f39565b93505060a0610ffd8a828b01610f39565b92505060c061100e8a828b01610f39565b91505092959891949750929550565b6000819050919050565b600061104261103d61103884610e6d565b61101d565b610e6d565b9050919050565b600061105482611027565b9050919050565b600061106682611049565b9050919050565b6110768161105b565b82525050565b6000602082019050611091600083018461106d565b92915050565b6000815190506110a681610f22565b92915050565b6000602082840312156110c2576110c1610e68565b5b60006110d084828501611097565b91505092915050565b60006040820190506110ee6000830185610ef8565b6110fb6020830184610e3e565b9392505050565b60008115159050919050565b61111781611102565b811461112257600080fd5b50565b6000815190506111348161110e565b92915050565b6000602082840312156111505761114f610e68565b5b600061115e84828501611125565b91505092915050565b7f4e487b7100000000000000000000000000000000000000000000000000000000600052601160045260246000fd5b60006111a182610e34565b91506111ac83610e34565b92508282026111ba81610e34565b915082820484148315176111d1576111d0611167565b5b5092915050565b60006040820190506111ed6000830185610e3e565b6111fa6020830184610e3e565b9392505050565b600061120c82610e34565b915061121783610e34565b925082820190508082111561122f5761122e611167565b5b92915050565b600060ff82169050919050565b61124b81611235565b811461125657600080fd5b50565b60008151905061126881611242565b92915050565b60006020828403121561128457611283610e68565b5b600061129284828501611259565b91505092915050565b60008160011c9050919050565b6000808291508390505b60018511156112f2578086048111156112ce576112cd611167565b5b60018516156112dd5780820291505b80810290506112eb8561129b565b94506112b2565b94509492505050565b60008261130b57600190506113c7565b8161131957600090506113c7565b816001811461132f576002811461133957611368565b60019150506113c7565b60ff84111561134b5761134a611167565b5b8360020a91508482111561136257611361611167565b5b506113c7565b5060208310610133831016604e8410600b841016171561139d5782820a90508381111561139857611397611167565b5b6113c7565b6113aa84848460016112a8565b925090508184048111156113c1576113c0611167565b5b81810290505b9392505050565b60006113d982610e34565b91506113e483611235565b92506114117fffffffffffffffffffffffffffffffffffffffffffffffffffffffffffffffff84846112fb565b905092915050565b6000819050919050565b600067ffffffffffffffff82169050919050565b600061145261144d61144884611419565b61101d565b611423565b9050919050565b61146281611437565b82525050565b600060208201905061147d6000830184611459565b9291505056fea264697066735822122080b81b41832c51a5dc30677308e2985fe6d1f1f609a4dc9ef9248bdb1e12ad3164736f6c634300081a0033",
  "linkReferences": {},
  "deployedLinkReferences": {}
}