{
  "_format": "hh-sol-artifact-1",
  "contractName": "MintableERC20",
  "sourceName": "contracts/MintableERC20.sol",
  "abi": [
    {
      "inputs": [],
      "stateMutability": "nonpayable",
      "type": "constructor"
    },
    {
      "inputs": [],
      "name": "AccessControlBadConfirmation",
      "type": "error"
    },
    {
      "inputs": [
        {
          "internalType": "address",
          "name": "account",
          "type": "address"
        },
        {
          "internalType": "bytes32",
          "name": "neededRole",
          "type": "bytes32"
        }
      ],
      "name": "AccessControlUnauthorizedAccount",
      "type": "error"
    },
    {
      "inputs": [
        {
          "internalType": "address",
          "name": "spender",
          "type": "address"
        },
        {
          "internalType": "uint256",
          "name": "allowance",
          "type": "uint256"
        },
        {
          "internalType": "uint256",
          "name": "needed",
          "type": "uint256"
        }
      ],
      "name": "ERC20InsufficientAllowance",
      "type": "error"
    },
    {
      "inputs": [
        {
          "internalType": "address",
          "name": "sender",
          "type": "address"
        },
        {
          "internalType": "uint256",
          "name": "balance",
          "type": "uint256"
        },
        {
          "internalType": "uint256",
          "name": "needed",
          "type": "uint256"
        }
      ],
      "name": "ERC20InsufficientBalance",
      "type": "error"
    },
    {
      "inputs": [
        {
          "internalType": "address",
          "name": "approver",
          "type": "address"
        }
      ],
      "name": "ERC20InvalidApprover",
      "type": "error"
    },
    {
      "inputs": [
        {
          "internalType": "address",
          "name": "receiver",
          "type": "address"
        }
      ],
      "name": "ERC20InvalidReceiver",
      "type": "error"
    },
    {
      "inputs": [
        {
          "internalType": "address",
          "name": "sender",
          "type": "address"
        }
      ],
      "name": "ERC20InvalidSender",
      "type": "error"
    },
    {
      "inputs": [
        {
          "internalType": "address",
          "name": "spender",
          "type": "address"
        }
      ],
      "name": "ERC20InvalidSpender",
      "type": "error"
    },
    {
      "inputs": [],
      "name": "InvalidInitialization",
      "type": "error"
    },
    {
      "inputs": [],
      "name": "NotInitializing",
      "type": "error"
    },
    {
      "anonymous": false,
      "inputs": [
        {
          "indexed": true,
          "internalType": "address",
          "name": "owner",
          "type": "address"
        },
        {
          "indexed": true,
          "internalType": "address",
          "name": "spender",
          "type": "address"
        },
        {
          "indexed": false,
          "internalType": "uint256",
          "name": "value",
          "type": "uint256"
        }
      ],
      "name": "Approval",
      "type": "event"
    },
    {
      "anonymous": false,
      "inputs": [
        {
          "indexed": false,
          "internalType": "uint64",
          "name": "version",
          "type": "uint64"
        }
      ],
      "name": "Initialized",
      "type": "event"
    },
    {
      "anonymous": false,
      "inputs": [
        {
          "indexed": true,
          "internalType": "bytes32",
          "name": "role",
          "type": "bytes32"
        },
        {
          "indexed": true,
          "internalType": "bytes32",
          "name": "previousAdminRole",
          "type": "bytes32"
        },
        {
          "indexed": true,
          "internalType": "bytes32",
          "name": "newAdminRole",
          "type": "bytes32"
        }
      ],
      "name": "RoleAdminChanged",
      "type": "event"
    },
    {
      "anonymous": false,
      "inputs": [
        {
          "indexed": true,
          "internalType": "bytes32",
          "name": "role",
          "type": "bytes32"
        },
        {
          "indexed": true,
          "internalType": "address",
          "name": "account",
          "type": "address"
        },
        {
          "indexed": true,
          "internalType": "address",
          "name": "sender",
          "type": "address"
        }
      ],
      "name": "RoleGranted",
      "type": "event"
    },
    {
      "anonymous": false,
      "inputs": [
        {
          "indexed": true,
          "internalType": "bytes32",
          "name": "role",
          "type": "bytes32"
        },
        {
          "indexed": true,
          "internalType": "address",
          "name": "account",
          "type": "address"
        },
        {
          "indexed": true,
          "internalType": "address",
          "name": "sender",
          "type": "address"
        }
      ],
      "name": "RoleRevoked",
      "type": "event"
    },
    {
      "anonymous": false,
      "inputs": [
        {
          "indexed": true,
          "internalType": "address",
          "name": "from",
          "type": "address"
        },
        {
          "indexed": true,
          "internalType": "address",
          "name": "to",
          "type": "address"
        },
        {
          "indexed": false,
          "internalType": "uint256",
          "name": "value",
          "type": "uint256"
        }
      ],
      "name": "Transfer",
      "type": "event"
    },
    {
      "inputs": [],
      "name": "DEFAULT_ADMIN_ROLE",
      "outputs": [
        {
          "internalType": "bytes32",
          "name": "",
          "type": "bytes32"
        }
      ],
      "stateMutability": "view",
      "type": "function"
    },
    {
      "inputs": [],
      "name": "MINTER_ROLE",
      "outputs": [
        {
          "internalType": "bytes32",
          "name": "",
          "type": "bytes32"
        }
      ],
      "stateMutability": "view",
      "type": "function"
    },
    {
      "inputs": [
        {
          "internalType": "address",
          "name": "owner",
          "type": "address"
        },
        {
          "internalType": "address",
          "name": "spender",
          "type": "address"
        }
      ],
      "name": "allowance",
      "outputs": [
        {
          "internalType": "uint256",
          "name": "",
          "type": "uint256"
        }
      ],
      "stateMutability": "view",
      "type": "function"
    },
    {
      "inputs": [
        {
          "internalType": "address",
          "name": "spender",
          "type": "address"
        },
        {
          "internalType": "uint256",
          "name": "value",
          "type": "uint256"
        }
      ],
      "name": "approve",
      "outputs": [
        {
          "internalType": "bool",
          "name": "",
          "type": "bool"
        }
      ],
      "stateMutability": "nonpayable",
      "type": "function"
    },
    {
      "inputs": [
        {
          "internalType": "address",
          "name": "account",
          "type": "address"
        }
      ],
      "name": "balanceOf",
      "outputs": [
        {
          "internalType": "uint256",
          "name": "",
          "type": "uint256"
        }
      ],
      "stateMutability": "view",
      "type": "function"
    },
    {
      "inputs": [],
      "name": "decimals",
      "outputs": [
        {
          "internalType": "uint8",
          "name": "",
          "type": "uint8"
        }
      ],
      "stateMutability": "view",
      "type": "function"
    },
    {
      "inputs": [
        {
          "internalType": "bytes32",
          "name": "role",
          "type": "bytes32"
        }
      ],
      "name": "getRoleAdmin",
      "outputs": [
        {
          "internalType": "bytes32",
          "name": "",
          "type": "bytes32"
        }
      ],
      "stateMutability": "view",
      "type": "function"
    },
    {
      "inputs": [
        {
          "internalType": "bytes32",
          "name": "role",
          "type": "bytes32"
        },
        {
          "internalType": "address",
          "name": "account",
          "type": "address"
        }
      ],
      "name": "grantRole",
      "outputs": [],
      "stateMutability": "nonpayable",
      "type": "function"
    },
    {
      "inputs": [
        {
          "internalType": "bytes32",
          "name": "role",
          "type": "bytes32"
        },
        {
          "internalType": "address",
          "name": "account",
          "type": "address"
        }
      ],
      "name": "hasRole",
      "outputs": [
        {
          "internalType": "bool",
          "name": "",
          "type": "bool"
        }
      ],
      "stateMutability": "view",
      "type": "function"
    },
    {
      "inputs": [
        {
          "internalType": "address",
          "name": "defaultAdmin_",
          "type": "address"
        },
        {
          "internalType": "address",
          "name": "minter_",
          "type": "address"
        },
        {
          "internalType": "string",
          "name": "name_",
          "type": "string"
        },
        {
          "internalType": "string",
          "name": "symbol_",
          "type": "string"
        },
        {
          "internalType": "uint256",
          "name": "initialSupply_",
          "type": "uint256"
        }
      ],
      "name": "initialize",
      "outputs": [],
      "stateMutability": "nonpayable",
      "type": "function"
    },
    {
      "inputs": [
        {
          "internalType": "address",
          "name": "to",
          "type": "address"
        },
        {
          "internalType": "uint256",
          "name": "amount",
          "type": "uint256"
        }
      ],
      "name": "mint",
      "outputs": [],
      "stateMutability": "nonpayable",
      "type": "function"
    },
    {
      "inputs": [],
      "name": "name",
      "outputs": [
        {
          "internalType": "string",
          "name": "",
          "type": "string"
        }
      ],
      "stateMutability": "view",
      "type": "function"
    },
    {
      "inputs": [],
      "name": "presaleAddress",
      "outputs": [
        {
          "internalType": "address",
          "name": "",
          "type": "address"
        }
      ],
      "stateMutability": "view",
      "type": "function"
    },
    {
      "inputs": [
        {
          "internalType": "bytes32",
          "name": "role",
          "type": "bytes32"
        },
        {
          "internalType": "address",
          "name": "callerConfirmation",
          "type": "address"
        }
      ],
      "name": "renounceRole",
      "outputs": [],
      "stateMutability": "nonpayable",
      "type": "function"
    },
    {
      "inputs": [
        {
          "internalType": "bytes32",
          "name": "role",
          "type": "bytes32"
        },
        {
          "internalType": "address",
          "name": "account",
          "type": "address"
        }
      ],
      "name": "revokeRole",
      "outputs": [],
      "stateMutability": "nonpayable",
      "type": "function"
    },
    {
      "inputs": [
        {
          "internalType": "bytes4",
          "name": "interfaceId",
          "type": "bytes4"
        }
      ],
      "name": "supportsInterface",
      "outputs": [
        {
          "internalType": "bool",
          "name": "",
          "type": "bool"
        }
      ],
      "stateMutability": "view",
      "type": "function"
    },
    {
      "inputs": [],
      "name": "symbol",
      "outputs": [
        {
          "internalType": "string",
          "name": "",
          "type": "string"
        }
      ],
      "stateMutability": "view",
      "type": "function"
    },
    {
      "inputs": [],
      "name": "totalSupply",
      "outputs": [
        {
          "internalType": "uint256",
          "name": "",
          "type": "uint256"
        }
      ],
      "stateMutability": "view",
      "type": "function"
    },
    {
      "inputs": [
        {
          "internalType": "address",
          "name": "to",
          "type": "address"
        },
        {
          "internalType": "uint256",
          "name": "value",
          "type": "uint256"
        }
      ],
      "name": "transfer",
      "outputs": [
        {
          "internalType": "bool",
          "name": "",
          "type": "bool"
        }
      ],
      "stateMutability": "nonpayable",
      "type": "function"
    },
    {
      "inputs": [
        {
          "internalType": "address",
          "name": "from",
          "type": "address"
        },
        {
          "internalType": "address",
          "name": "to",
          "type": "address"
        },
        {
          "internalType": "uint256",
          "name": "value",
          "type": "uint256"
        }
      ],
      "name": "transferFrom",
      "outputs": [
        {
          "internalType": "bool",
          "name": "",
          "type": "bool"
        }
      ],
      "stateMutability": "nonpayable",
      "type": "function"
    }
  ],
  "bytecode": "0x608060405234801561001057600080fd5b5061001f61002460201b60201c565b6101ab565b600061003461012860201b60201c565b90508060000160089054906101000a900460ff161561007f576040517ff92ee8a900000000000000000000000000000000000000000000000000000000815260040160405180910390fd5b67ffffffffffffffff80168160000160009054906101000a900467ffffffffffffffff1667ffffffffffffffff16146101255767ffffffffffffffff8160000160006101000a81548167ffffffffffffffff021916908367ffffffffffffffff1602179055507fc7f505b2f371ae2175ee4913f4499e1f2633a7b5936321eed1cdaeb6115181d267ffffffffffffffff60405161011c9190610190565b60405180910390a15b50565b60008061013961014260201b60201c565b90508091505090565b60007ff0c57e16840df040f15088dc2f81fe391c3923bec73e23a9662efc9c229c6a0060001b905090565b600067ffffffffffffffff82169050919050565b61018a8161016d565b82525050565b60006020820190506101a56000830184610181565b92915050565b612040806101ba6000396000f3fe608060405234801561001057600080fd5b506004361061012c5760003560e01c806340c10f19116100ad578063a217fddf11610071578063a217fddf14610357578063a9059cbb14610375578063d5391393146103a5578063d547741f146103c3578063dd62ed3e146103df5761012c565b806340c10f19146102a157806370a08231146102bd57806391d14854146102ed57806393d239231461031d57806395d89b41146103395761012c565b806323b872dd116100f457806323b872dd146101eb578063248a9ca31461021b5780632f2ff15d1461024b578063313ce5671461026757806336568abe146102855761012c565b806301ffc9a71461013157806306fdde0314610161578063095ea7b31461017f578063122fe685146101af57806318160ddd146101cd575b600080fd5b61014b600480360381019061014691906116ae565b61040f565b60405161015891906116f6565b60405180910390f35b610169610489565b60405161017691906117a1565b60405180910390f35b61019960048036038101906101949190611857565b61052a565b6040516101a691906116f6565b60405180910390f35b6101b761054d565b6040516101c491906118a6565b60405180910390f35b6101d5610571565b6040516101e291906118d0565b60405180910390f35b610205600480360381019061020091906118eb565b610589565b60405161021291906116f6565b60405180910390f35b61023560048036038101906102309190611974565b6105b8565b60405161024291906119b0565b60405180910390f35b610265600480360381019061026091906119cb565b6105e6565b005b61026f610608565b60405161027c9190611a27565b60405180910390f35b61029f600480360381019061029a91906119cb565b610611565b005b6102bb60048036038101906102b69190611857565b61068c565b005b6102d760048036038101906102d29190611a42565b6106c5565b6040516102e491906118d0565b60405180910390f35b610307600480360381019061030291906119cb565b61071c565b60405161031491906116f6565b60405180910390f35b61033760048036038101906103329190611ad4565b610795565b005b610341610a3e565b60405161034e91906117a1565b60405180910390f35b61035f610adf565b60405161036c91906119b0565b60405180910390f35b61038f600480360381019061038a9190611857565b610ae6565b60405161039c91906116f6565b60405180910390f35b6103ad610b09565b6040516103ba91906119b0565b60405180910390f35b6103dd60048036038101906103d891906119cb565b610b2d565b005b6103f960048036038101906103f49190611b90565b610b4f565b60405161040691906118d0565b60405180910390f35b60007f7965db0b000000000000000000000000000000000000000000000000000000007bffffffffffffffffffffffffffffffffffffffffffffffffffffffff1916827bffffffffffffffffffffffffffffffffffffffffffffffffffffffff19161480610482575061048182610be4565b5b9050919050565b60606000610495610c4e565b90508060030180546104a690611bff565b80601f01602080910402602001604051908101604052809291908181526020018280546104d290611bff565b801561051f5780601f106104f45761010080835404028352916020019161051f565b820191906000526020600020905b81548152906001019060200180831161050257829003601f168201915b505050505091505090565b600080610535610c76565b9050610542818585610c7e565b600191505092915050565b60008054906101000a900473ffffffffffffffffffffffffffffffffffffffff1681565b60008061057c610c4e565b9050806002015491505090565b600080610594610c76565b90506105a1858285610c90565b6105ac858585610d25565b60019150509392505050565b6000806105c3610e19565b905080600001600084815260200190815260200160002060010154915050919050565b6105ef826105b8565b6105f881610e41565b6106028383610e55565b50505050565b60006012905090565b610619610c76565b73ffffffffffffffffffffffffffffffffffffffff168173ffffffffffffffffffffffffffffffffffffffff161461067d576040517f6697b23200000000000000000000000000000000000000000000000000000000815260040160405180910390fd5b6106878282610f56565b505050565b7f9f2df0fed2c77648de5860a4cc508cd0818c85b8b8a1ab4ceeef8d981c8956a66106b681610e41565b6106c08383611058565b505050565b6000806106d0610c4e565b90508060000160008473ffffffffffffffffffffffffffffffffffffffff1673ffffffffffffffffffffffffffffffffffffffff16815260200190815260200160002054915050919050565b600080610727610e19565b905080600001600085815260200190815260200160002060000160008473ffffffffffffffffffffffffffffffffffffffff1673ffffffffffffffffffffffffffffffffffffffff16815260200190815260200160002060009054906101000a900460ff1691505092915050565b600061079f6110da565b905060008160000160089054906101000a900460ff1615905060008260000160009054906101000a900467ffffffffffffffff1690506000808267ffffffffffffffff161480156107ed5750825b9050600060018367ffffffffffffffff16148015610822575060003073ffffffffffffffffffffffffffffffffffffffff163b145b905081158015610830575080155b15610867576040517ff92ee8a900000000000000000000000000000000000000000000000000000000815260040160405180910390fd5b60018560000160006101000a81548167ffffffffffffffff021916908367ffffffffffffffff16021790555083156108b75760018560000160086101000a81548160ff0219169083151502179055505b6109498a8a8080601f016020809104026020016040519081016040528093929190818152602001838380828437600081840152601f19601f8201169050808301925050505050505089898080601f016020809104026020016040519081016040528093929190818152602001838380828437600081840152601f19601f820116905080830192505050505050506110ee565b610951611104565b61095e6000801b8d610e55565b506109897f9f2df0fed2c77648de5860a4cc508cd0818c85b8b8a1ab4ceeef8d981c8956a68c610e55565b506109948c87611058565b8a6000806101000a81548173ffffffffffffffffffffffffffffffffffffffff021916908373ffffffffffffffffffffffffffffffffffffffff1602179055508315610a305760008560000160086101000a81548160ff0219169083151502179055507fc7f505b2f371ae2175ee4913f4499e1f2633a7b5936321eed1cdaeb6115181d26001604051610a279190611c89565b60405180910390a15b505050505050505050505050565b60606000610a4a610c4e565b9050806004018054610a5b90611bff565b80601f0160208091040260200160405190810160405280929190818152602001828054610a8790611bff565b8015610ad45780601f10610aa957610100808354040283529160200191610ad4565b820191906000526020600020905b815481529060010190602001808311610ab757829003601f168201915b505050505091505090565b6000801b81565b600080610af1610c76565b9050610afe818585610d25565b600191505092915050565b7f9f2df0fed2c77648de5860a4cc508cd0818c85b8b8a1ab4ceeef8d981c8956a681565b610b36826105b8565b610b3f81610e41565b610b498383610f56565b50505050565b600080610b5a610c4e565b90508060010160008573ffffffffffffffffffffffffffffffffffffffff1673ffffffffffffffffffffffffffffffffffffffff16815260200190815260200160002060008473ffffffffffffffffffffffffffffffffffffffff1673ffffffffffffffffffffffffffffffffffffffff1681526020019081526020016000205491505092915050565b60007f01ffc9a7000000000000000000000000000000000000000000000000000000007bffffffffffffffffffffffffffffffffffffffffffffffffffffffff1916827bffffffffffffffffffffffffffffffffffffffffffffffffffffffff1916149050919050565b60007f52c63247e1f47db19d5ce0460030c497f067ca4cebf71ba98eeadabe20bace00905090565b600033905090565b610c8b838383600161110e565b505050565b6000610c9c8484610b4f565b90507fffffffffffffffffffffffffffffffffffffffffffffffffffffffffffffffff811015610d1f5781811015610d0f578281836040517ffb8f41b2000000000000000000000000000000000000000000000000000000008152600401610d0693929190611ca4565b60405180910390fd5b610d1e8484848403600061110e565b5b50505050565b600073ffffffffffffffffffffffffffffffffffffffff168373ffffffffffffffffffffffffffffffffffffffff1603610d975760006040517f96c6fd1e000000000000000000000000000000000000000000000000000000008152600401610d8e91906118a6565b60405180910390fd5b600073ffffffffffffffffffffffffffffffffffffffff168273ffffffffffffffffffffffffffffffffffffffff1603610e095760006040517fec442f05000000000000000000000000000000000000000000000000000000008152600401610e0091906118a6565b60405180910390fd5b610e148383836112f4565b505050565b60007f02dd7bc7dec4dceedda775e58dd541e08a116c6c53815c0bd028192f7b626800905090565b610e5281610e4d610c76565b611533565b50565b600080610e60610e19565b9050610e6c848461071c565b610f4a57600181600001600086815260200190815260200160002060000160008573ffffffffffffffffffffffffffffffffffffffff1673ffffffffffffffffffffffffffffffffffffffff16815260200190815260200160002060006101000a81548160ff021916908315150217905550610ee6610c76565b73ffffffffffffffffffffffffffffffffffffffff168373ffffffffffffffffffffffffffffffffffffffff16857f2f8788117e7eff1d82e926ec794901d17c78024a50270940304540a733656f0d60405160405180910390a46001915050610f50565b60009150505b92915050565b600080610f61610e19565b9050610f6d848461071c565b1561104c57600081600001600086815260200190815260200160002060000160008573ffffffffffffffffffffffffffffffffffffffff1673ffffffffffffffffffffffffffffffffffffffff16815260200190815260200160002060006101000a81548160ff021916908315150217905550610fe8610c76565b73ffffffffffffffffffffffffffffffffffffffff168373ffffffffffffffffffffffffffffffffffffffff16857ff6391f5c32d9c69d2a47ea670b442974b53935d1edc7fd64eb21e047a839171b60405160405180910390a46001915050611052565b60009150505b92915050565b600073ffffffffffffffffffffffffffffffffffffffff168273ffffffffffffffffffffffffffffffffffffffff16036110ca5760006040517fec442f050000000000000000000000000000000000000000000000000000000081526004016110c191906118a6565b60405180910390fd5b6110d6600083836112f4565b5050565b6000806110e5611584565b90508091505090565b6110f66115af565b61110082826115ef565b5050565b61110c6115af565b565b6000611118610c4e565b9050600073ffffffffffffffffffffffffffffffffffffffff168573ffffffffffffffffffffffffffffffffffffffff160361118c5760006040517fe602df0500000000000000000000000000000000000000000000000000000000815260040161118391906118a6565b60405180910390fd5b600073ffffffffffffffffffffffffffffffffffffffff168473ffffffffffffffffffffffffffffffffffffffff16036111fe5760006040517f94280d620000000000000000000000000000000000000000000000000000000081526004016111f591906118a6565b60405180910390fd5b828160010160008773ffffffffffffffffffffffffffffffffffffffff1673ffffffffffffffffffffffffffffffffffffffff16815260200190815260200160002060008673ffffffffffffffffffffffffffffffffffffffff1673ffffffffffffffffffffffffffffffffffffffff1681526020019081526020016000208190555081156112ed578373ffffffffffffffffffffffffffffffffffffffff168573ffffffffffffffffffffffffffffffffffffffff167f8c5be1e5ebec7d5bd14f71427d1e84f3dd0314c0f7b2291e5b200ac8c7c3b925856040516112e491906118d0565b60405180910390a35b5050505050565b60006112fe610c4e565b9050600073ffffffffffffffffffffffffffffffffffffffff168473ffffffffffffffffffffffffffffffffffffffff160361135457818160020160008282546113489190611d0a565b9250508190555061142d565b60008160000160008673ffffffffffffffffffffffffffffffffffffffff1673ffffffffffffffffffffffffffffffffffffffff168152602001908152602001600020549050828110156113e3578481846040517fe450d38c0000000000000000000000000000000000000000000000000000000081526004016113da93929190611ca4565b60405180910390fd5b8281038260000160008773ffffffffffffffffffffffffffffffffffffffff1673ffffffffffffffffffffffffffffffffffffffff16815260200190815260200160002081905550505b600073ffffffffffffffffffffffffffffffffffffffff168373ffffffffffffffffffffffffffffffffffffffff1603611478578181600201600082825403925050819055506114c8565b818160000160008573ffffffffffffffffffffffffffffffffffffffff1673ffffffffffffffffffffffffffffffffffffffff168152602001908152602001600020600082825401925050819055505b8273ffffffffffffffffffffffffffffffffffffffff168473ffffffffffffffffffffffffffffffffffffffff167fddf252ad1be2c89b69c2b068fc378daa952ba7f163c4a11628f55a4df523b3ef8460405161152591906118d0565b60405180910390a350505050565b61153d828261071c565b6115805780826040517fe2517d3f000000000000000000000000000000000000000000000000000000008152600401611577929190611d3e565b60405180910390fd5b5050565b60007ff0c57e16840df040f15088dc2f81fe391c3923bec73e23a9662efc9c229c6a0060001b905090565b6115b761162c565b6115ed576040517fd7e6bcf800000000000000000000000000000000000000000000000000000000815260040160405180910390fd5b565b6115f76115af565b6000611601610c4e565b9050828160030190816116149190611f38565b50818160040190816116269190611f38565b50505050565b60006116366110da565b60000160089054906101000a900460ff16905090565b600080fd5b600080fd5b60007fffffffff0000000000000000000000000000000000000000000000000000000082169050919050565b61168b81611656565b811461169657600080fd5b50565b6000813590506116a881611682565b92915050565b6000602082840312156116c4576116c361164c565b5b60006116d284828501611699565b91505092915050565b60008115159050919050565b6116f0816116db565b82525050565b600060208201905061170b60008301846116e7565b92915050565b600081519050919050565b600082825260208201905092915050565b60005b8381101561174b578082015181840152602081019050611730565b60008484015250505050565b6000601f19601f8301169050919050565b600061177382611711565b61177d818561171c565b935061178d81856020860161172d565b61179681611757565b840191505092915050565b600060208201905081810360008301526117bb8184611768565b905092915050565b600073ffffffffffffffffffffffffffffffffffffffff82169050919050565b60006117ee826117c3565b9050919050565b6117fe816117e3565b811461180957600080fd5b50565b60008135905061181b816117f5565b92915050565b6000819050919050565b61183481611821565b811461183f57600080fd5b50565b6000813590506118518161182b565b92915050565b6000806040838503121561186e5761186d61164c565b5b600061187c8582860161180c565b925050602061188d85828601611842565b9150509250929050565b6118a0816117e3565b82525050565b60006020820190506118bb6000830184611897565b92915050565b6118ca81611821565b82525050565b60006020820190506118e560008301846118c1565b92915050565b6000806000606084860312156119045761190361164c565b5b60006119128682870161180c565b93505060206119238682870161180c565b925050604061193486828701611842565b9150509250925092565b6000819050919050565b6119518161193e565b811461195c57600080fd5b50565b60008135905061196e81611948565b92915050565b60006020828403121561198a5761198961164c565b5b60006119988482850161195f565b91505092915050565b6119aa8161193e565b82525050565b60006020820190506119c560008301846119a1565b92915050565b600080604083850312156119e2576119e161164c565b5b60006119f08582860161195f565b9250506020611a018582860161180c565b9150509250929050565b600060ff82169050919050565b611a2181611a0b565b82525050565b6000602082019050611a3c6000830184611a18565b92915050565b600060208284031215611a5857611a5761164c565b5b6000611a668482850161180c565b91505092915050565b600080fd5b600080fd5b600080fd5b60008083601f840112611a9457611a93611a6f565b5b8235905067ffffffffffffffff811115611ab157611ab0611a74565b5b602083019150836001820283011115611acd57611acc611a79565b5b9250929050565b600080600080600080600060a0888a031215611af357611af261164c565b5b6000611b018a828b0161180c565b9750506020611b128a828b0161180c565b965050604088013567ffffffffffffffff811115611b3357611b32611651565b5b611b3f8a828b01611a7e565b9550955050606088013567ffffffffffffffff811115611b6257611b61611651565b5b611b6e8a828b01611a7e565b93509350506080611b818a828b01611842565b91505092959891949750929550565b60008060408385031215611ba757611ba661164c565b5b6000611bb58582860161180c565b9250506020611bc68582860161180c565b9150509250929050565b7f4e487b7100000000000000000000000000000000000000000000000000000000600052602260045260246000fd5b60006002820490506001821680611c1757607f821691505b602082108103611c2a57611c29611bd0565b5b50919050565b6000819050919050565b600067ffffffffffffffff82169050919050565b6000819050919050565b6000611c73611c6e611c6984611c30565b611c4e565b611c3a565b9050919050565b611c8381611c58565b82525050565b6000602082019050611c9e6000830184611c7a565b92915050565b6000606082019050611cb96000830186611897565b611cc660208301856118c1565b611cd360408301846118c1565b949350505050565b7f4e487b7100000000000000000000000000000000000000000000000000000000600052601160045260246000fd5b6000611d1582611821565b9150611d2083611821565b9250828201905080821115611d3857611d37611cdb565b5b92915050565b6000604082019050611d536000830185611897565b611d6060208301846119a1565b9392505050565b7f4e487b7100000000000000000000000000000000000000000000000000000000600052604160045260246000fd5b60008190508160005260206000209050919050565b60006020601f8301049050919050565b600082821b905092915050565b600060088302611df87fffffffffffffffffffffffffffffffffffffffffffffffffffffffffffffffff82611dbb565b611e028683611dbb565b95508019841693508086168417925050509392505050565b6000611e35611e30611e2b84611821565b611c4e565b611821565b9050919050565b6000819050919050565b611e4f83611e1a565b611e63611e5b82611e3c565b848454611dc8565b825550505050565b600090565b611e78611e6b565b611e83818484611e46565b505050565b5b81811015611ea757611e9c600082611e70565b600181019050611e89565b5050565b601f821115611eec57611ebd81611d96565b611ec684611dab565b81016020851015611ed5578190505b611ee9611ee185611dab565b830182611e88565b50505b505050565b600082821c905092915050565b6000611f0f60001984600802611ef1565b1980831691505092915050565b6000611f288383611efe565b9150826002028217905092915050565b611f4182611711565b67ffffffffffffffff811115611f5a57611f59611d67565b5b611f648254611bff565b611f6f828285611eab565b600060209050601f831160018114611fa25760008415611f90578287015190505b611f9a8582611f1c565b865550612002565b601f198416611fb086611d96565b60005b82811015611fd857848901518255600182019150602085019450602081019050611fb3565b86831015611ff55784890151611ff1601f891682611efe565b8355505b6001600288020188555050505b50505050505056fea2646970667358221220cac92f006c807c6640270c3e38be64f4022942388a5c127f4c5510f7a170c66f64736f6c634300081a0033",
  "linkReferences": {},
  "deployedLinkReferences": {}
}