{
  "_format": "hh-sol-artifact-1",
  "contractName": "Presale",
  "sourceName": "contracts/Presale.sol",
  "abi": [
    {
      "inputs": [],
      "stateMutability": "nonpayable",
      "type": "constructor"
    },
    {
      "inputs": [
        {
          "internalType": "uint256",
          "name": "currentContribution",
          "type": "uint256"
        },
        {
          "internalType": "uint256",
          "name": "maxContribution",
          "type": "uint256"
        }
      ],
      "name": "HardCapExceeded",
      "type": "error"
    },
    {
      "inputs": [
        {
          "internalType": "uint256",
          "name": "amountSent",
          "type": "uint256"
        },
        {
          "internalType": "uint256",
          "name": "requiredAmount",
          "type": "uint256"
        }
      ],
      "name": "InvalidEtherSent",
      "type": "error"
    },
    {
      "inputs": [],
      "name": "InvalidInitialization",
      "type": "error"
    },
    {
      "inputs": [],
      "name": "NotInitializing",
      "type": "error"
    },
    {
      "inputs": [
        {
          "internalType": "address",
          "name": "owner",
          "type": "address"
        }
      ],
      "name": "OwnableInvalidOwner",
      "type": "error"
    },
    {
      "inputs": [
        {
          "internalType": "address",
          "name": "account",
          "type": "address"
        }
      ],
      "name": "OwnableUnauthorizedAccount",
      "type": "error"
    },
    {
      "inputs": [],
      "name": "PresaleNotActive",
      "type": "error"
    },
    {
      "anonymous": false,
      "inputs": [
        {
          "indexed": true,
          "internalType": "address",
          "name": "to",
          "type": "address"
        },
        {
          "indexed": false,
          "internalType": "uint256",
          "name": "amount",
          "type": "uint256"
        }
      ],
      "name": "EtherWithdrawn",
      "type": "event"
    },
    {
      "anonymous": false,
      "inputs": [
        {
          "indexed": false,
          "internalType": "uint64",
          "name": "version",
          "type": "uint64"
        }
      ],
      "name": "Initialized",
      "type": "event"
    },
    {
      "anonymous": false,
      "inputs": [
        {
          "indexed": true,
          "internalType": "address",
          "name": "contributor",
          "type": "address"
        },
        {
          "indexed": false,
          "internalType": "uint256",
          "name": "amount",
          "type": "uint256"
        }
      ],
      "name": "NewContribution",
      "type": "event"
    },
    {
      "anonymous": false,
      "inputs": [
        {
          "indexed": true,
          "internalType": "address",
          "name": "previousOwner",
          "type": "address"
        },
        {
          "indexed": true,
          "internalType": "address",
          "name": "newOwner",
          "type": "address"
        }
      ],
      "name": "OwnershipTransferred",
      "type": "event"
    },
    {
      "anonymous": false,
      "inputs": [
        {
          "indexed": true,
          "internalType": "address",
          "name": "to",
          "type": "address"
        },
        {
          "indexed": false,
          "internalType": "uint256",
          "name": "amount",
          "type": "uint256"
        }
      ],
      "name": "TokenWithdrawn",
      "type": "event"
    },
    {
      "inputs": [
        {
          "internalType": "uint256",
          "name": "amount",
          "type": "uint256"
        }
      ],
      "name": "contribute",
      "outputs": [],
      "stateMutability": "payable",
      "type": "function"
    },
    {
      "inputs": [],
      "name": "endTime",
      "outputs": [
        {
          "internalType": "uint256",
          "name": "",
          "type": "uint256"
        }
      ],
      "stateMutability": "view",
      "type": "function"
    },
    {
      "inputs": [],
      "name": "hardCap",
      "outputs": [
        {
          "internalType": "uint256",
          "name": "",
          "type": "uint256"
        }
      ],
      "stateMutability": "view",
      "type": "function"
    },
    {
      "inputs": [
        {
          "internalType": "address",
          "name": "owner_",
          "type": "address"
        },
        {
          "internalType": "address",
          "name": "token_",
          "type": "address"
        },
        {
          "internalType": "uint256",
          "name": "price_",
          "type": "uint256"
        },
        {
          "internalType": "uint256",
          "name": "hardCap_",
          "type": "uint256"
        },
        {
          "internalType": "uint256",
          "name": "softCap_",
          "type": "uint256"
        },
        {
          "internalType": "uint256",
          "name": "startTime_",
          "type": "uint256"
        },
        {
          "internalType": "uint256",
          "name": "endTime_",
          "type": "uint256"
        }
      ],
      "name": "initialize",
      "outputs": [],
      "stateMutability": "nonpayable",
      "type": "function"
    },
    {
      "inputs": [],
      "name": "owner",
      "outputs": [
        {
          "internalType": "address",
          "name": "",
          "type": "address"
        }
      ],
      "stateMutability": "view",
      "type": "function"
    },
    {
      "inputs": [],
      "name": "price",
      "outputs": [
        {
          "internalType": "uint256",
          "name": "",
          "type": "uint256"
        }
      ],
      "stateMutability": "view",
      "type": "function"
    },
    {
      "inputs": [],
      "name": "renounceOwnership",
      "outputs": [],
      "stateMutability": "nonpayable",
      "type": "function"
    },
    {
      "inputs": [],
      "name": "softCap",
      "outputs": [
        {
          "internalType": "uint256",
          "name": "",
          "type": "uint256"
        }
      ],
      "stateMutability": "view",
      "type": "function"
    },
    {
      "inputs": [],
      "name": "startTime",
      "outputs": [
        {
          "internalType": "uint256",
          "name": "",
          "type": "uint256"
        }
      ],
      "stateMutability": "view",
      "type": "function"
    },
    {
      "inputs": [],
      "name": "token",
      "outputs": [
        {
          "internalType": "contract MintableERC20",
          "name": "",
          "type": "address"
        }
      ],
      "stateMutability": "view",
      "type": "function"
    },
    {
      "inputs": [],
      "name": "totalContributed",
      "outputs": [
        {
          "internalType": "uint256",
          "name": "",
          "type": "uint256"
        }
      ],
      "stateMutability": "view",
      "type": "function"
    },
    {
      "inputs": [
        {
          "internalType": "address",
          "name": "newOwner",
          "type": "address"
        }
      ],
      "name": "transferOwnership",
      "outputs": [],
      "stateMutability": "nonpayable",
      "type": "function"
    },
    {
      "inputs": [],
      "name": "withdrawETH",
      "outputs": [],
      "stateMutability": "nonpayable",
      "type": "function"
    },
    {
      "inputs": [
        {
          "internalType": "address",
          "name": "token_",
          "type": "address"
        }
      ],
      "name": "withdrawToken",
      "outputs": [],
      "stateMutability": "nonpayable",
      "type": "function"
    }
  ],
  "bytecode": "0x608060405234801561001057600080fd5b5061001f61002460201b60201c565b6101ab565b600061003461012860201b60201c565b90508060000160089054906101000a900460ff161561007f576040517ff92ee8a900000000000000000000000000000000000000000000000000000000815260040160405180910390fd5b67ffffffffffffffff80168160000160009054906101000a900467ffffffffffffffff1667ffffffffffffffff16146101255767ffffffffffffffff8160000160006101000a81548167ffffffffffffffff021916908367ffffffffffffffff1602179055507fc7f505b2f371ae2175ee4913f4499e1f2633a7b5936321eed1cdaeb6115181d267ffffffffffffffff60405161011c9190610190565b60405180910390a15b50565b60008061013961014260201b60201c565b90508091505090565b60007ff0c57e16840df040f15088dc2f81fe391c3923bec73e23a9662efc9c229c6a0060001b905090565b600067ffffffffffffffff82169050919050565b61018a8161016d565b82525050565b60006020820190506101a56000830184610181565b92915050565b6114c8806101ba6000396000f3fe6080604052600436106100dd5760003560e01c8063a035b1fe1161007f578063edbf4ac211610059578063edbf4ac214610257578063f2fde38b14610280578063fb86a404146102a9578063fc0c546a146102d4576100dd565b8063a035b1fe146101f9578063c1cbbca714610224578063e086e5ec14610240576100dd565b806378e97925116100bb57806378e979251461014f578063894760691461017a5780638da5cb5b146101a3578063906a26e0146101ce576100dd565b8063023f4147146100e25780633197cbb61461010d578063715018a614610138575b600080fd5b3480156100ee57600080fd5b506100f76102ff565b6040516101049190610e5c565b60405180910390f35b34801561011957600080fd5b50610122610305565b60405161012f9190610e5c565b60405180910390f35b34801561014457600080fd5b5061014d61030b565b005b34801561015b57600080fd5b5061016461031f565b6040516101719190610e5c565b60405180910390f35b34801561018657600080fd5b506101a1600480360381019061019c9190610eda565b610325565b005b3480156101af57600080fd5b506101b861053d565b6040516101c59190610f16565b60405180910390f35b3480156101da57600080fd5b506101e3610575565b6040516101f09190610e5c565b60405180910390f35b34801561020557600080fd5b5061020e61057b565b60405161021b9190610e5c565b60405180910390f35b61023e60048036038101906102399190610f5d565b610581565b005b34801561024c57600080fd5b50610255610827565b005b34801561026357600080fd5b5061027e60048036038101906102799190610f8a565b6108d4565b005b34801561028c57600080fd5b506102a760048036038101906102a29190610eda565b610acc565b005b3480156102b557600080fd5b506102be610b52565b6040516102cb9190610e5c565b60405180910390f35b3480156102e057600080fd5b506102e9610b58565b6040516102f6919061108b565b60405180910390f35b60065481565b60055481565b610313610b7c565b61031d6000610c03565b565b60045481565b61032d610b7c565b8073ffffffffffffffffffffffffffffffffffffffff1663a9059cbb61035161053d565b60008054906101000a900473ffffffffffffffffffffffffffffffffffffffff1673ffffffffffffffffffffffffffffffffffffffff166370a08231306040518263ffffffff1660e01b81526004016103aa9190610f16565b602060405180830381865afa1580156103c7573d6000803e3d6000fd5b505050506040513d601f19601f820116820180604052508101906103eb91906110bb565b6040518363ffffffff1660e01b81526004016104089291906110e8565b6020604051808303816000875af1158015610427573d6000803e3d6000fd5b505050506040513d601f19601f8201168201806040525081019061044b9190611149565b5061045461053d565b73ffffffffffffffffffffffffffffffffffffffff167fa2bd9fcfcdba69f52bcd9a520846ad4bd685b187483f53efc42d035b2ddebff060008054906101000a900473ffffffffffffffffffffffffffffffffffffffff1673ffffffffffffffffffffffffffffffffffffffff166370a08231306040518263ffffffff1660e01b81526004016104e49190610f16565b602060405180830381865afa158015610501573d6000803e3d6000fd5b505050506040513d601f19601f8201168201806040525081019061052591906110bb565b6040516105329190610e5c565b60405180910390a250565b600080610548610cda565b90508060000160009054906101000a900473ffffffffffffffffffffffffffffffffffffffff1691505090565b60035481565b60015481565b6004544210806105a157506000600554141580156105a0575060055442115b5b156105d8576040517fe113695c00000000000000000000000000000000000000000000000000000000815260040160405180910390fd5b6000600154826105e891906111a5565b90503481146106305734816040517f26fea35b0000000000000000000000000000000000000000000000000000000081526004016106279291906111e7565b60405180910390fd5b600254346006546106419190611210565b111561068a576006546002546040517f6bda2c440000000000000000000000000000000000000000000000000000000081526004016106819291906111e7565b60405180910390fd5b346006600082825461069c9190611210565b9250508190555060008054906101000a900473ffffffffffffffffffffffffffffffffffffffff1673ffffffffffffffffffffffffffffffffffffffff166340c10f193360008054906101000a900473ffffffffffffffffffffffffffffffffffffffff1673ffffffffffffffffffffffffffffffffffffffff1663313ce5676040518163ffffffff1660e01b8152600401602060405180830381865afa15801561074b573d6000803e3d6000fd5b505050506040513d601f19601f8201168201806040525081019061076f919061127d565b600a61077b91906113dd565b8561078691906111a5565b6040518363ffffffff1660e01b81526004016107a39291906110e8565b600060405180830381600087803b1580156107bd57600080fd5b505af11580156107d1573d6000803e3d6000fd5b505050503373ffffffffffffffffffffffffffffffffffffffff167fbdaa686eb6f59012d211a74523da260341c516896e9e5be954163d6ecf26ffa28360405161081b9190610e5c565b60405180910390a25050565b61082f610b7c565b61083761053d565b73ffffffffffffffffffffffffffffffffffffffff166108fc479081150290604051600060405180830381858888f1935050505015801561087c573d6000803e3d6000fd5b5061088561053d565b73ffffffffffffffffffffffffffffffffffffffff167f06097061aeda806b5e9cb4133d9899f332ff0913956567fc0f7ea15e3d19947c476040516108ca9190610e5c565b60405180910390a2565b60006108de610d02565b905060008160000160089054906101000a900460ff1615905060008260000160009054906101000a900467ffffffffffffffff1690506000808267ffffffffffffffff1614801561092c5750825b9050600060018367ffffffffffffffff16148015610961575060003073ffffffffffffffffffffffffffffffffffffffff163b145b90508115801561096f575080155b156109a6576040517ff92ee8a900000000000000000000000000000000000000000000000000000000815260040160405180910390fd5b60018560000160006101000a81548167ffffffffffffffff021916908367ffffffffffffffff16021790555083156109f65760018560000160086101000a81548160ff0219169083151502179055505b6109ff8c610d16565b8a6000806101000a81548173ffffffffffffffffffffffffffffffffffffffff021916908373ffffffffffffffffffffffffffffffffffffffff16021790555089600181905550886002819055508760038190555086600481905550856005819055508315610abe5760008560000160086101000a81548160ff0219169083151502179055507fc7f505b2f371ae2175ee4913f4499e1f2633a7b5936321eed1cdaeb6115181d26001604051610ab59190611477565b60405180910390a15b505050505050505050505050565b610ad4610b7c565b600073ffffffffffffffffffffffffffffffffffffffff168173ffffffffffffffffffffffffffffffffffffffff1603610b465760006040517f1e4fbdf7000000000000000000000000000000000000000000000000000000008152600401610b3d9190610f16565b60405180910390fd5b610b4f81610c03565b50565b60025481565b60008054906101000a900473ffffffffffffffffffffffffffffffffffffffff1681565b610b84610d2a565b73ffffffffffffffffffffffffffffffffffffffff16610ba261053d565b73ffffffffffffffffffffffffffffffffffffffff1614610c0157610bc5610d2a565b6040517f118cdaa7000000000000000000000000000000000000000000000000000000008152600401610bf89190610f16565b60405180910390fd5b565b6000610c0d610cda565b905060008160000160009054906101000a900473ffffffffffffffffffffffffffffffffffffffff169050828260000160006101000a81548173ffffffffffffffffffffffffffffffffffffffff021916908373ffffffffffffffffffffffffffffffffffffffff1602179055508273ffffffffffffffffffffffffffffffffffffffff168173ffffffffffffffffffffffffffffffffffffffff167f8be0079c531659141344cd1fd0a4f28419497f9722a3daafe3b4186f6b6457e060405160405180910390a3505050565b60007f9016d09d72d40fdae2fd8ceac6b6234c7706214fd39c1cd1e609a0528c199300905090565b600080610d0d610d32565b90508091505090565b610d1e610d5d565b610d2781610d9d565b50565b600033905090565b60007ff0c57e16840df040f15088dc2f81fe391c3923bec73e23a9662efc9c229c6a0060001b905090565b610d65610e23565b610d9b576040517fd7e6bcf800000000000000000000000000000000000000000000000000000000815260040160405180910390fd5b565b610da5610d5d565b600073ffffffffffffffffffffffffffffffffffffffff168173ffffffffffffffffffffffffffffffffffffffff1603610e175760006040517f1e4fbdf7000000000000000000000000000000000000000000000000000000008152600401610e0e9190610f16565b60405180910390fd5b610e2081610c03565b50565b6000610e2d610d02565b60000160089054906101000a900460ff16905090565b6000819050919050565b610e5681610e43565b82525050565b6000602082019050610e716000830184610e4d565b92915050565b600080fd5b600073ffffffffffffffffffffffffffffffffffffffff82169050919050565b6000610ea782610e7c565b9050919050565b610eb781610e9c565b8114610ec257600080fd5b50565b600081359050610ed481610eae565b92915050565b600060208284031215610ef057610eef610e77565b5b6000610efe84828501610ec5565b91505092915050565b610f1081610e9c565b82525050565b6000602082019050610f2b6000830184610f07565b92915050565b610f3a81610e43565b8114610f4557600080fd5b50565b600081359050610f5781610f31565b92915050565b600060208284031215610f7357610f72610e77565b5b6000610f8184828501610f48565b91505092915050565b600080600080600080600060e0888a031215610fa957610fa8610e77565b5b6000610fb78a828b01610ec5565b9750506020610fc88a828b01610ec5565b9650506040610fd98a828b01610f48565b9550506060610fea8a828b01610f48565b9450506080610ffb8a828b01610f48565b93505060a061100c8a828b01610f48565b92505060c061101d8a828b01610f48565b91505092959891949750929550565b6000819050919050565b600061105161104c61104784610e7c565b61102c565b610e7c565b9050919050565b600061106382611036565b9050919050565b600061107582611058565b9050919050565b6110858161106a565b82525050565b60006020820190506110a0600083018461107c565b92915050565b6000815190506110b581610f31565b92915050565b6000602082840312156110d1576110d0610e77565b5b60006110df848285016110a6565b91505092915050565b60006040820190506110fd6000830185610f07565b61110a6020830184610e4d565b9392505050565b60008115159050919050565b61112681611111565b811461113157600080fd5b50565b6000815190506111438161111d565b92915050565b60006020828403121561115f5761115e610e77565b5b600061116d84828501611134565b91505092915050565b7f4e487b7100000000000000000000000000000000000000000000000000000000600052601160045260246000fd5b60006111b082610e43565b91506111bb83610e43565b92508282026111c981610e43565b915082820484148315176111e0576111df611176565b5b5092915050565b60006040820190506111fc6000830185610e4d565b6112096020830184610e4d565b9392505050565b600061121b82610e43565b915061122683610e43565b925082820190508082111561123e5761123d611176565b5b92915050565b600060ff82169050919050565b61125a81611244565b811461126557600080fd5b50565b60008151905061127781611251565b92915050565b60006020828403121561129357611292610e77565b5b60006112a184828501611268565b91505092915050565b60008160011c9050919050565b6000808291508390505b6001851115611301578086048111156112dd576112dc611176565b5b60018516156112ec5780820291505b80810290506112fa856112aa565b94506112c1565b94509492505050565b60008261131a57600190506113d6565b8161132857600090506113d6565b816001811461133e576002811461134857611377565b60019150506113d6565b60ff84111561135a57611359611176565b5b8360020a91508482111561137157611370611176565b5b506113d6565b5060208310610133831016604e8410600b84101617156113ac5782820a9050838111156113a7576113a6611176565b5b6113d6565b6113b984848460016112b7565b925090508184048111156113d0576113cf611176565b5b81810290505b9392505050565b60006113e882610e43565b91506113f383611244565b92506114207fffffffffffffffffffffffffffffffffffffffffffffffffffffffffffffffff848461130a565b905092915050565b6000819050919050565b600067ffffffffffffffff82169050919050565b600061146161145c61145784611428565b61102c565b611432565b9050919050565b61147181611446565b82525050565b600060208201905061148c6000830184611468565b9291505056fea26469706673582212201da5e57ee561c5ebbd94906a02e8f836aafa3d9ead5018821cddde8d9900c48964736f6c634300081a0033",
  "linkReferences": {},
  "deployedLinkReferences": {}
}